:1000000000308A00DF2800000A108A100A118207D7
:100010003134323433344134343435343634423488
:1000200037343834393443342A3430342334443484
:100030000F308316860083128A110A12F82883165D
:1000400006140030831206180130A70083168614A8
:100050000030831286180130A7058316061500307C
:10006000831206190130A705831686150030831206
:10007000861901302705031941280030F80043286C
:1000800043280130F8000800A501A10A2108033C1B
:100090000318D2282408FC3E03189328043ED728CE
:1000A0008316061283120612831686128312861690
:1000B0008316061383120617831686138312861778
:1000C000932883160612831206168316861283124D
:1000D000861283160613831206178316861383125D
:1000E0008617932883160612831206168316861225
:1000F000831286168316061383120613831686133D
:100100008312861793288316061283120616831607
:100110008612831286168316061383120617831619
:10012000861383128613221C9E281F20F808031DA5
:100130009D2822102308A500A301D1281F20F8081C
:100140000319CC288316061483120618A928A601C1
:10015000C0288316861483128618B1280130A600A1
:10016000C0288316061583120619B9280230A60086
:10017000C0288316861583128619C0280330A6006E
:10018000260DF700F70DFC30F7057708240704204B
:10019000F800A3002214D128A40A2408043C03195F
:1001A000A401A1012508F8008A110A12F9280A10F1
:1001B0008A100A11820750286128722883280308B0
:1001C0001F398300831603170908C03989000313F8
:1001D0001F129F12003003178800831287018801C5
:1001E000890183130313A1012210A301A40118287C
:1001F00044287808A0002008313C031D03298316F9
:100200008510831285142008303C031D0B298316AA
:0A021000851083128510F8286300A2
:04400E00E22FFF3F5F
:00000001FF
;PIC16F887
;CRC=6D4E  CREATED="24-feb.-22 14:40"
