:1000000000308A00E22800000A108A100A118207D4
:100010003134323433344134343435343634423488
:1000200037343834393443342A3430342334443484
:100030000F308316860001309500811383128A11D8
:100040000A12FB28831606140030831206180130AA
:10005000A700831686140030831286180130A70586
:10006000831606150030831206190130A705831682
:10007000861500308312861901302705031944289C
:100080000030F800462846280130F8000800A50195
:10009000A10A2108033C0318D5282408FC3E0318B4
:1000A0009628043EDA288316061283120612831657
:1000B000861283128616831606138312061783167A
:1000C0008613831286179628831606128312061645
:1000D000831686128312861283160613831206175E
:1000E00083168613831286179628831606128312A8
:1000F000061683168612831286168316061383123B
:100100000613831686138312861796288316061203
:10011000831206168316861283128616831606131A
:10012000831206178316861383128613221CA128B6
:100130002220F808031DA02822102308A500A301EF
:10014000D4282220F8080319CF2883160614831216
:100150000618AC28A601C3288316861483128618B5
:10016000B4280130A600C328831606158312061989
:10017000BC280230A600C328831686158312861970
:10018000C3280330A600260DF700F70DFC30F70555
:10019000770824070420F800A3002214D428A40A16
:1001A0002408043C0319A401A1012508F8008A11C0
:1001B0000A12FC280A108A100A11820753286428A0
:1001C0007528862803081F3983008316031709083A
:1001D000C039890003131F129F12003003178800D3
:1001E000831287018801890183130313A10122105F
:1001F000A301A401182847287808A0002008313C52
:10020000031D062983168510831285142008303CAF
:10021000031D0E298316851083128510FB286300A9
:04400E00E22FFF3F5F
:00000001FF
;PIC16F887
;CRC=9DCC  CREATED="29-ago.-23 17:11"
