:1000000000308A00E02800000A108A100A118207D6
:100010003134323433344134343435343634423488
:1000200037343834393443342A3430342334443484
:100030000F3083168600811383128A110A12F12869
:10004000831606140030831206180130A7008316A9
:1000500086140030831286180130A7058316061512
:100060000030831206190130A7058316861500306B
:100070008312861901302705031942280030F80041
:10008000442844280130F8000800A501A10A2108ED
:10009000033C0318D3282408FC3E03189428043E8C
:1000A000D82883160612831206128316861283122C
:1000B0008616831606138312061783168613831279
:1000C0008617942883160612831206168316861244
:1000D000831286128316061383120617831686135D
:1000E0008312861794288316061283120616831627
:1000F000861283128616831606138312061383163E
:100100008613831286179428831606128312061606
:100110008316861283128616831606138312061719
:100120008316861383128613221C9F282020F8082A
:10013000031D9E2822102308A500A301D2282020F9
:10014000F8080319CD288316061483120618AA2866
:10015000A601C1288316861483128618B22801309E
:10016000A600C1288316061583120619BA28023084
:10017000A600C1288316861583128619C12803306C
:10018000A600260DF700F70DFC30F70577082407C9
:100190000420F800A3002214D228A40A2408043C56
:1001A0000319A401A1012508F8008A110A12F228F6
:1001B0000A108A100A11820751286228732884289D
:1001C00003081F39830083161F149F141F159F11E6
:1001D00007309C0083138312A1012210A301A40104
:1001E000182845287808A0002008313C031DFC2869
:1001F00083168510831285142008303C031D0429C2
:0C0200008316851083128510F12863001E
:02400E00723FFF
:00000001FF
;PIC16F877A
;CRC=921A  CREATED="29-ago.-23 17:12"
